:020000040000FA
:100000002728A301A200FF30A207031CA307031C9B
:1000100022280330A100E3300F200328A101F43E81
:10002000A000A109FE30031C1828A00703181528FA
:10003000A0076400A10F1528000020181F28201811
:100040002128080083130313831264000800831619
:100050000F168F160F179B01033085008601831240
:100060003230B900BA0164008A11051C4D286400C1
:100070003A08003C8A11031D4D280610831606100D
:10008000831239088A010120061483160610831290
:1000900039088A0101200130BA0064008A11851CE8
:1000A000722864003A08013C8A11031D722801304D
:1000B000B8006400043038028A1103187128061051
:1000C00083160610831239088A010120061483164C
:1000D0000610831239088A010120B80A8A11031D0B
:0800E0005928BA018A013328F6
:02400E00543F1D
:00000001FF
