:020000040000FA
:10000000AB28A600360884000930A70003100D2095
:10001000A60CA70B072803140D288413B31D1C2856
:1000200000083404331D34068000841700083404AB
:10003000031C34068000272800083404031C3406FF
:1000400033193406800084173409800527280030CE
:100050008A00330D0639A0003420A10000308A0048
:10006000200A342000006128383E03188A0A8200E2
:100070000134893403342934003450340C34ED34E1
:10008000A000A00DA00D200D3839C1389F00003010
:10009000A100323061201F151F194C281E08A10035
:1000A00083161E08A628A301A200FF30A207031C86
:1000B000A307031CA6280330A100E33061205528C4
:1000C000A101F43EA000A109FE30031C6A28A0078C
:1000D00003186728A0076400A10F672800002018F4
:1000E0007128201873280800A501A4011030A6006B
:1000F000210DA40DA50D2208A4022308031C230F23
:10010000A50203188A282208A40723080318230F2E
:10011000A5070310A00DA10DA60B78282008A6287E
:100120001030A800A101A001A70CA60C031C9E285A
:100130002208A00723080318230FA107A10CA00C75
:10014000A50CA40CA80B94282408A6288313031339
:1001500083126400080083160F168F160F170230E3
:100160009B009F178514033085008601831264006D
:100170008A11051CF62801308A014020B8002108A8
:10018000B9003808A0003908A1000430A200A3017A
:100190008A017420BE006430A600A7013808A200BE
:1001A0003908A3008A019020BC002508BD003C0846
:1001B000A0003D08A100FF30A2000330A3008A0187
:1001C0007420BA002108BB0006148316061083129F
:1001D0003B08A3003A088A01542006108316061033
:1001E00083123B08A3003A088A01542064008A1154
:1001F000851FFE2806148316061083128A11032118
:10020000C2008A110B2901308A0000300A3E03180F
:100210008A0A82005B340630B6000230B400023035
:10022000B30042088A0101200630B6000230B40053
:100230000230B3003E088A0101208A112221C20047
:100240008A112A2901308A000030293E03188A0ABF
:1002500082002C340630B6000230B4000230B30005
:1002600042088A010120003005180130C000063024
:10027000B6000230B4000230B30040088A01012009
:100280008A114521C2008A114D2901308A000030AF
:100290004C3E03188A0A82002C340630B600023025
:1002A000B4000230B30042088A0101200030851BEF
:1002B0000130C0000630B6000230B4000230B30096
:1002C00040088A0101208A116821C2008A11702920
:1002D00001308A0000306F3E03188A0A82005D34C4
:1002E0000630B6000230B4000230B30042088A0182
:0602F00001208A01B7287D
:02400E00543F1D
:00000001FF
