:020000040000FA
:100000007B28B4001D200A30232034088004841388
:100010008006A001A101841734088006640010281E
:1000200080068413000503191B282408A007031861
:10003000A10F0B28A1032108762880041F28FF3A6E
:10004000841780057628A301A200FF30A207031CB5
:10005000A307031C76280330A100E33031202528B4
:10006000A101F43EA000A109FE30031C3A28A0071C
:1000700003183728A0076400A10F372800002018B4
:100080004128201843280800A501A4011030A6002B
:10009000210DA40DA50D2208A4022308031C230F83
:1000A000A50203185A282208A40723080318230FBF
:1000B000A5070310A00DA10DA60B4828200876283F
:1000C0001030A800A101A001A70CA60C031C6E28EB
:1000D0002208A00723080318230FA107A10CA00CD6
:1000E000A50CA40CA80B64282408762883130313FA
:1000F00083126400080083160F168F160F179B01DA
:100100001D308500860183128601851083168510B7
:100110008312FF30A4000530840004308A010120DE
:10012000BC00860106148316061083120130A3005A
:10013000F4308A01242064308A0123203C08A00086
:10014000A1016430A200A3018A014420BA00013059
:10015000BB0064003B083A028A11031CC5288615BF
:100160008316861183120130A3002C308A012420CB
:1001700086118316861183120130A3002C308A0168
:100180002420BB0A8A11031DA9283A08A600A7014A
:100190006430A200A3018A016020B8002508B900DC
:1001A0003808BC0206148316061083120130A3001F
:1001B000F4308A012420061083160610643083125E
:1001C0008A0123203C08A000A1010A30A200A3015B
:1001D0008A014420BA000130BB0064003B083A02A7
:1001E0008A11031C09290615831606118312013092
:1001F000A3002C308A0124200611831606118312D5
:100200000130A3002C308A012420BB0A8A11031D6F
:10021000ED283A08A600A7010A30A200A3018A012E
:100220006020B8002508B90038083C02BA0006145E
:100230008316061083120130A300F4308A012420B3
:10024000061083160610643083128A0123200130C1
:10025000BB0064003B083A028A11031C452986143E
:100260008316861083120130A3002C308A012420CB
:1002700086108316861083120130A3002C308A0169
:100280002420BB0A8A11031D29298A0189286300B9
:040290008A0147296F
:02400E00543F1D
:00000001FF
