:020000040000FA
:100000009C28B4001D200A30232034088004841367
:100010008006A001A101841734088006640010281E
:1000200080068413000503191B282408A007031861
:10003000A10F0B28A1032108972880041F28FF3A4D
:10004000841780059728A301A200FF30A207031C94
:10005000A307031C97280330A100E3303120252893
:10006000A101F43EA000A109FE30031C3A28A0071C
:1000700003183728A0076400A10F372800002018B4
:100080004128201843280800A101A301A200013043
:100090004E28A101A301A20004304E28A800230885
:1000A0002102031D552822082002043003180130C4
:1000B000031902302805031DFF3097280038031D5F
:1000C000FF300405031DFF309728A501A40110305F
:1000D000A600210DA40DA50D2208A4022308031CCF
:1000E000230FA50203187B282208A407230803185E
:1000F000230FA5070310A00DA10DA60B692820084A
:1001000097281030A800A101A001A70CA60C031C81
:100110008F282208A00723080318230FA107A10C8A
:10012000A00CA50CA40CA80B8528240897288313E1
:10013000031383126400080083160F168F160F171F
:100140009B011D3085008601831286018510831670
:10015000851083123030B8007530B9000730C50003
:10016000450886008A11B6208A112929FF30A4008B
:100170000530840004308A010120C4004408A00036
:1001800025308A014420BA004408A00072308A0158
:100190004920BC003A0884003C088A015E20BC006B
:1001A000BD004508A0000F308A014920BE003C0870
:1001B0003D0484003E088A015E20BE00BF0064004A
:1001C0003E083F048A110319EF28C50A4508860036
:1001D0000130A3002C308A0124208A1127294408E9
:1001E000A00072308A014420BA004408A000C03048
:1001F0008A014920BC003A0884003C088A015E203C
:10020000BC00BD004508A00000308A014420BE00AB
:100210003C083D0484003E088A015E20BE00BF0009
:1002200064003E083F048A1103192029C5034508CC
:1002300086000130A3002C308A0124208A1127294E
:100240006400C13044028A11031C272908008A0176
:10025000B62886013808A0003908A1000530A200A0
:10026000A3018A016520BA002108BB003A08A0005A
:100270003B08A1000F30A200A3018A016520BA004B
:100280002108BB003A08A6003B08A7004508A200C9
:10029000A3018A018120BA002508BB003808A0000C
:1002A0003908A1001430A200A3018A016520BC0016
:1002B0002108BD003C08A6003D08A7000330A200AD
:1002C000A3018A018120BC002508BD003A083C0733
:1002D000C0003B080318013E3D07C100400838023A
:1002E000C2004108031C013E3902C30064008A11A8
:1002F00085198E2985148316851083124108A10063
:1003000040088A0131208510831685108312430826
:10031000A10042088A0131208A0176294508860019
:0A0320008A01B22863008A019229C5
:02400E00543F1D
:00000001FF
