:020000040000FA
:100000002728A301A200FF30A207031CA307031C9B
:1000100022280330A100E3300F200328A101F43E81
:10002000A000A109FE30031C1828A00703181528FA
:10003000A0076400A10F1528000020181F28201811
:100040002128080083130313831264000800831619
:100050000F168F160F179B010E3085008601831235
:100060000230B8003730B9004130BA001130BB005F
:100070003430BC001830BD000830BE003330BF0043
:10008000C0013030C1002030C2000C30C3004A3003
:10009000C4000530C5004830C6006830C700CA013A
:1000A0008A11892064008A1185185C28CA018A1186
:1000B000892064308A01012064008A1105197128A1
:1000C00064004A080F3C8A11031D6928CA018A117D
:1000D0006A28CA0A8A118920C8308A0101208A0147
:1000E0005C2864008A118519872864004A08003C4E
:1000F0008A11031D7F280F30CA008A118028CA0385
:100100008A118920C8308A0101208A0171288A0158
:0E01100052284A08383E840000088600080085
:02400E00543F1D
:00000001FF
