:020000040000FA
:100000004928B4001D200A302320340880048413BA
:100010008006A001A101841734088006640010281E
:1000200080068413000503191B282408A007031861
:10003000A10F0B28A1032108442880041F28FF3AA0
:10004000841780054428A301A200FF30A207031CE7
:10005000A307031C44280330A100E33031202528E6
:10006000A101F43EA000A109FE30031C3A28A0071C
:1000700003183728A0076400A10F372800002018B4
:1000800041282018432808008313031383126400B7
:10009000080083160F168F160F179B018312381155
:1000A0003810B810831609308500C03086008312DE
:1000B00064008A11851D6228381483163810831253
:1000C0008A116628381083163810831264008A114A
:1000D000051C7028B8148316B81083128A1174286E
:1000E000B8108316B810831264008A11381C7E2859
:1000F00005158316051183128A11822805118316AE
:100100000511831264008A11B81C8C28851483168B
:10011000851083128A11902885108316851083120A
:10012000FF30A4000530840010308A010120B9009E
:1001300064008A11861FA22838158316381183128D
:100140008A11BC2864008A11061FB8286400813017
:1001500039028A11031CB22838158316381183120C
:100160008A11B62838118316381183128A11BC28D7
:10017000381183163811831264008A11381DCA2879
:1001800086148316861083120614831606108312B3
:100190008A11D228861083168610831206108316C1
:0E01A000061083128A01582863008A01D428B1
:02400E00543F1D
:00000001FF
